{
  "contractName": "Dex",
  "abi": [
    {
      "inputs": [],
      "stateMutability": "nonpayable",
      "type": "constructor"
    },
    {
      "anonymous": false,
      "inputs": [
        {
          "indexed": false,
          "internalType": "uint256",
          "name": "orderId",
          "type": "uint256"
        },
        {
          "indexed": false,
          "internalType": "bytes32",
          "name": "ticker",
          "type": "bytes32"
        },
        {
          "indexed": false,
          "internalType": "string",
          "name": "message",
          "type": "string"
        }
      ],
      "name": "CancelOrder",
      "type": "event"
    },
    {
      "anonymous": false,
      "inputs": [
        {
          "indexed": false,
          "internalType": "uint256",
          "name": "tradeId",
          "type": "uint256"
        },
        {
          "indexed": false,
          "internalType": "uint256",
          "name": "orderId",
          "type": "uint256"
        },
        {
          "indexed": true,
          "internalType": "bytes32",
          "name": "ticker",
          "type": "bytes32"
        },
        {
          "indexed": true,
          "internalType": "address",
          "name": "trader1",
          "type": "address"
        },
        {
          "indexed": true,
          "internalType": "address",
          "name": "trader2",
          "type": "address"
        },
        {
          "indexed": false,
          "internalType": "uint256",
          "name": "amount",
          "type": "uint256"
        },
        {
          "indexed": false,
          "internalType": "uint256",
          "name": "price",
          "type": "uint256"
        },
        {
          "indexed": false,
          "internalType": "uint256",
          "name": "date",
          "type": "uint256"
        }
      ],
      "name": "NewTrade",
      "type": "event"
    },
    {
      "inputs": [],
      "name": "admin",
      "outputs": [
        {
          "internalType": "address",
          "name": "",
          "type": "address"
        }
      ],
      "stateMutability": "view",
      "type": "function",
      "constant": true
    },
    {
      "inputs": [],
      "name": "nextOrderId",
      "outputs": [
        {
          "internalType": "uint256",
          "name": "",
          "type": "uint256"
        }
      ],
      "stateMutability": "view",
      "type": "function",
      "constant": true
    },
    {
      "inputs": [],
      "name": "nextTradeId",
      "outputs": [
        {
          "internalType": "uint256",
          "name": "",
          "type": "uint256"
        }
      ],
      "stateMutability": "view",
      "type": "function",
      "constant": true
    },
    {
      "inputs": [
        {
          "internalType": "bytes32",
          "name": "",
          "type": "bytes32"
        },
        {
          "internalType": "uint256",
          "name": "",
          "type": "uint256"
        },
        {
          "internalType": "uint256",
          "name": "",
          "type": "uint256"
        }
      ],
      "name": "orderBook",
      "outputs": [
        {
          "internalType": "uint256",
          "name": "id",
          "type": "uint256"
        },
        {
          "internalType": "address",
          "name": "trader",
          "type": "address"
        },
        {
          "internalType": "enum Dex.Side",
          "name": "side",
          "type": "uint8"
        },
        {
          "internalType": "bytes32",
          "name": "ticker",
          "type": "bytes32"
        },
        {
          "internalType": "uint256",
          "name": "amount",
          "type": "uint256"
        },
        {
          "internalType": "uint256",
          "name": "filled",
          "type": "uint256"
        },
        {
          "internalType": "uint256",
          "name": "price",
          "type": "uint256"
        },
        {
          "internalType": "uint256",
          "name": "date",
          "type": "uint256"
        }
      ],
      "stateMutability": "view",
      "type": "function",
      "constant": true
    },
    {
      "inputs": [
        {
          "internalType": "bytes32",
          "name": "",
          "type": "bytes32"
        }
      ],
      "name": "token",
      "outputs": [
        {
          "internalType": "bytes32",
          "name": "ticker",
          "type": "bytes32"
        },
        {
          "internalType": "address",
          "name": "tokenAddress",
          "type": "address"
        }
      ],
      "stateMutability": "view",
      "type": "function",
      "constant": true
    },
    {
      "inputs": [
        {
          "internalType": "uint256",
          "name": "",
          "type": "uint256"
        }
      ],
      "name": "tokenList",
      "outputs": [
        {
          "internalType": "bytes32",
          "name": "",
          "type": "bytes32"
        }
      ],
      "stateMutability": "view",
      "type": "function",
      "constant": true
    },
    {
      "inputs": [
        {
          "internalType": "address",
          "name": "",
          "type": "address"
        },
        {
          "internalType": "bytes32",
          "name": "",
          "type": "bytes32"
        }
      ],
      "name": "tradersBalances",
      "outputs": [
        {
          "internalType": "uint256",
          "name": "",
          "type": "uint256"
        }
      ],
      "stateMutability": "view",
      "type": "function",
      "constant": true
    },
    {
      "inputs": [
        {
          "internalType": "bytes32",
          "name": "ticker",
          "type": "bytes32"
        },
        {
          "internalType": "address",
          "name": "tokenAddress",
          "type": "address"
        }
      ],
      "name": "addToken",
      "outputs": [],
      "stateMutability": "nonpayable",
      "type": "function"
    },
    {
      "inputs": [
        {
          "internalType": "uint256",
          "name": "amount",
          "type": "uint256"
        },
        {
          "internalType": "bytes32",
          "name": "ticker",
          "type": "bytes32"
        }
      ],
      "name": "deposit",
      "outputs": [],
      "stateMutability": "nonpayable",
      "type": "function"
    },
    {
      "inputs": [
        {
          "internalType": "uint256",
          "name": "amount",
          "type": "uint256"
        },
        {
          "internalType": "bytes32",
          "name": "ticker",
          "type": "bytes32"
        }
      ],
      "name": "withdraw",
      "outputs": [],
      "stateMutability": "nonpayable",
      "type": "function"
    },
    {
      "inputs": [
        {
          "internalType": "bytes32",
          "name": "ticker",
          "type": "bytes32"
        },
        {
          "internalType": "uint256",
          "name": "amount",
          "type": "uint256"
        },
        {
          "internalType": "uint256",
          "name": "price",
          "type": "uint256"
        },
        {
          "internalType": "enum Dex.Side",
          "name": "side",
          "type": "uint8"
        }
      ],
      "name": "createLimitOrder",
      "outputs": [],
      "stateMutability": "nonpayable",
      "type": "function"
    },
    {
      "inputs": [
        {
          "internalType": "bytes32",
          "name": "ticker",
          "type": "bytes32"
        },
        {
          "internalType": "uint256",
          "name": "amount",
          "type": "uint256"
        },
        {
          "internalType": "enum Dex.Side",
          "name": "side",
          "type": "uint8"
        }
      ],
      "name": "createMarketOrder",
      "outputs": [],
      "stateMutability": "nonpayable",
      "type": "function"
    },
    {
      "inputs": [
        {
          "internalType": "bytes32",
          "name": "ticker",
          "type": "bytes32"
        },
        {
          "internalType": "enum Dex.Side",
          "name": "side",
          "type": "uint8"
        },
        {
          "internalType": "uint256",
          "name": "id",
          "type": "uint256"
        }
      ],
      "name": "cancelOrder",
      "outputs": [],
      "stateMutability": "nonpayable",
      "type": "function"
    },
    {
      "inputs": [
        {
          "internalType": "bytes32",
          "name": "ticker",
          "type": "bytes32"
        },
        {
          "internalType": "enum Dex.Side",
          "name": "side",
          "type": "uint8"
        }
      ],
      "name": "getOrders",
      "outputs": [
        {
          "components": [
            {
              "internalType": "uint256",
              "name": "id",
              "type": "uint256"
            },
            {
              "internalType": "address",
              "name": "trader",
              "type": "address"
            },
            {
              "internalType": "enum Dex.Side",
              "name": "side",
              "type": "uint8"
            },
            {
              "internalType": "bytes32",
              "name": "ticker",
              "type": "bytes32"
            },
            {
              "internalType": "uint256",
              "name": "amount",
              "type": "uint256"
            },
            {
              "internalType": "uint256",
              "name": "filled",
              "type": "uint256"
            },
            {
              "internalType": "uint256",
              "name": "price",
              "type": "uint256"
            },
            {
              "internalType": "uint256",
              "name": "date",
              "type": "uint256"
            }
          ],
          "internalType": "struct Dex.Order[]",
          "name": "",
          "type": "tuple[]"
        }
      ],
      "stateMutability": "view",
      "type": "function",
      "constant": true
    },
    {
      "inputs": [],
      "name": "getTokens",
      "outputs": [
        {
          "components": [
            {
              "internalType": "bytes32",
              "name": "ticker",
              "type": "bytes32"
            },
            {
              "internalType": "address",
              "name": "tokenAddress",
              "type": "address"
            }
          ],
          "internalType": "struct Dex.Token[]",
          "name": "",
          "type": "tuple[]"
        }
      ],
      "stateMutability": "view",
      "type": "function",
      "constant": true
    }
  ],
  "bytecode": "0x608060405234801561001057600080fd5b5033600460006101000a81548173ffffffffffffffffffffffffffffffffffffffff021916908373ffffffffffffffffffffffffffffffffffffffff1602179055506139ec806100616000396000f3fe608060405234801561001057600080fd5b50600436106100f55760003560e01c80639776aacf11610097578063c9630cb011610066578063c9630cb01461028b578063d9c0c950146102a7578063e6062e1a146102c3578063f851a440146102f4576100f5565b80639776aacf146102055780639ead722214610221578063a8d2021a14610251578063aa6ca8081461026d576100f5565b80634bd1b41b116100d35780634bd1b41b1461017f57806354c6d7131461019b5780637f2c6246146101cb578063813ad083146101e7576100f5565b80630bb431b6146100fa5780632a58b3301461013157806346e9658b1461014f575b600080fd5b610114600480360381019061010f91906129f1565b610312565b604051610128989796959493929190612b1a565b60405180910390f35b6101396103b1565b6040516101469190612b98565b60405180910390f35b61016960048036038101906101649190612bd8565b6103b7565b6040516101769190612da6565b60405180910390f35b61019960048036038101906101949190612dc8565b61051b565b005b6101b560048036038101906101b09190612e47565b610ae7565b6040516101c29190612b98565b60405180910390f35b6101e560048036038101906101e09190612e87565b610b0c565b005b6101ef6118f1565b6040516101fc9190612b98565b60405180910390f35b61021f600480360381019061021a9190612eda565b6118f7565b005b61023b60048036038101906102369190612f1a565b611a45565b6040516102489190612f47565b60405180910390f35b61026b60048036038101906102669190612f62565b611a69565b005b610275611cc1565b6040516102829190613080565b60405180910390f35b6102a560048036038101906102a09190612f62565b611e1a565b005b6102c160048036038101906102bc91906130a2565b611fe1565b005b6102dd60048036038101906102d89190613109565b6128e3565b6040516102eb929190613136565b60405180910390f35b6102fc612927565b604051610309919061315f565b60405180910390f35b6002602052826000526040600020602052816000526040600020818154811061033a57600080fd5b906000526020600020906007020160009250925050508060000154908060010160009054906101000a900473ffffffffffffffffffffffffffffffffffffffff16908060010160149054906101000a900460ff16908060020154908060030154908060040154908060050154908060060154905088565b60055481565b60606002600084815260200190815260200160002060008360028111156103e1576103e0612a94565b5b8152602001908152602001600020805480602002602001604051908101604052809291908181526020016000905b8282101561050f578382906000526020600020906007020160405180610100016040529081600082015481526020016001820160009054906101000a900473ffffffffffffffffffffffffffffffffffffffff1673ffffffffffffffffffffffffffffffffffffffff1673ffffffffffffffffffffffffffffffffffffffff1681526020016001820160149054906101000a900460ff1660028111156104b8576104b7612a94565b5b60028111156104ca576104c9612a94565b5b8152602001600282015481526020016003820154815260200160048201548152602001600582015481526020016006820154815250508152602001906001019061040f565b50505050905092915050565b8160028081111561052f5761052e612a94565b5b81600281111561054257610541612a94565b5b03610582576040517f08c379a0000000000000000000000000000000000000000000000000000000008152600401610579906131fd565b60405180910390fd5b60006002600086815260200190815260200160002060008560028111156105ac576105ab612a94565b5b8152602001908152602001600020905060006002600087815260200190815260200160002060006002808111156105e6576105e5612a94565b5b8152602001908152602001600020905060005b8280549050811015610aa557848382815481106106195761061861321d565b5b90600052602060002090600702016000015403610a92573373ffffffffffffffffffffffffffffffffffffffff1683828154811061065a5761065961321d565b5b906000526020600020906007020160010160009054906101000a900473ffffffffffffffffffffffffffffffffffffffff1673ffffffffffffffffffffffffffffffffffffffff16146106e2576040517f08c379a00000000000000000000000000000000000000000000000000000000081526004016106d990613298565b60405180910390fd5b60028382815481106106f7576106f661321d565b5b906000526020600020906007020160010160146101000a81548160ff0219169083600281111561072a57610729612a94565b5b0217905550818382815481106107435761074261321d565b5b90600052602060002090600702019080600181540180825580915050600190039060005260206000209060070201600090919091909150600082015481600001556001820160009054906101000a900473ffffffffffffffffffffffffffffffffffffffff168160010160006101000a81548173ffffffffffffffffffffffffffffffffffffffff021916908373ffffffffffffffffffffffffffffffffffffffff1602179055506001820160149054906101000a900460ff168160010160146101000a81548160ff0219169083600281111561082357610822612a94565b5b02179055506002820154816002015560038201548160030155600482015481600401556005820154816005015560068201548160060155505060008190505b6001848054905061087391906132e7565b8110156109be5783600182610888919061331b565b815481106108995761089861321d565b5b90600052602060002090600702018482815481106108ba576108b961321d565b5b9060005260206000209060070201600082015481600001556001820160009054906101000a900473ffffffffffffffffffffffffffffffffffffffff168160010160006101000a81548173ffffffffffffffffffffffffffffffffffffffff021916908373ffffffffffffffffffffffffffffffffffffffff1602179055506001820160149054906101000a900460ff168160010160146101000a81548160ff0219169083600281111561097157610970612a94565b5b0217905550600282015481600201556003820154816003015560048201548160040155600582015481600501556006820154816006015590505080806109b690613371565b915050610862565b50828054806109d0576109cf6133b9565b5b60019003818190600052602060002090600702016000808201600090556001820160006101000a81549073ffffffffffffffffffffffffffffffffffffffff02191690556001820160146101000a81549060ff021916905560028201600090556003820160009055600482016000905560058201600090556006820160009055505090557fb61471e1d4ae934f4d3b9f22fec64d44ab69ae3ab73d829857f5cb45f2a313f48588604051610a85929190613434565b60405180910390a1610aa5565b8080610a9d90613371565b9150506105f9565b507fb61471e1d4ae934f4d3b9f22fec64d44ab69ae3ab73d829857f5cb45f2a313f48487604051610ad79291906134bc565b60405180910390a1505050505050565b6001602052816000526040600020602052806000526040600020600091509150505481565b82600073ffffffffffffffffffffffffffffffffffffffff1660008083815260200190815260200160002060010160009054906101000a900473ffffffffffffffffffffffffffffffffffffffff1673ffffffffffffffffffffffffffffffffffffffff1603610bb1576040517f08c379a0000000000000000000000000000000000000000000000000000000008152600401610ba890613544565b60405180910390fd5b837f44414900000000000000000000000000000000000000000000000000000000008103610c14576040517f08c379a0000000000000000000000000000000000000000000000000000000008152600401610c0b906135b0565b60405180910390fd5b82600280811115610c2857610c27612a94565b5b816002811115610c3b57610c3a612a94565b5b03610c7b576040517f08c379a0000000000000000000000000000000000000000000000000000000008152600401610c72906131fd565b60405180910390fd5b60016002811115610c8f57610c8e612a94565b5b846002811115610ca257610ca1612a94565b5b03610d3b5784600160003373ffffffffffffffffffffffffffffffffffffffff1673ffffffffffffffffffffffffffffffffffffffff1681526020019081526020016000206000888152602001908152602001600020541015610d3a576040517f08c379a0000000000000000000000000000000000000000000000000000000008152600401610d319061361c565b60405180910390fd5b5b6000600260008881526020019081526020016000206000806002811115610d6557610d64612a94565b5b876002811115610d7857610d77612a94565b5b14610d84576000610d87565b60015b6002811115610d9957610d98612a94565b5b815260200190815260200160002090506000808790505b828054905082108015610dc35750600081115b15611677576000838381548110610ddd57610ddc61321d565b5b906000526020600020906007020160040154848481548110610e0257610e0161321d565b5b906000526020600020906007020160030154610e1e91906132e7565b90506000818311610e2f5782610e31565b815b90508083610e3f91906132e7565b925080858581548110610e5557610e5461321d565b5b9060005260206000209060070201600401819055503373ffffffffffffffffffffffffffffffffffffffff16858581548110610e9457610e9361321d565b5b906000526020600020906007020160010160009054906101000a900473ffffffffffffffffffffffffffffffffffffffff1673ffffffffffffffffffffffffffffffffffffffff168c7fdb0c486e680ba8026643e6a85f8d157b5e7bcd4b32b54d564542570a9eb20416600654898981548110610f1457610f1361321d565b5b9060005260206000209060070201600001548a8a81548110610f3957610f3861321d565b5b9060005260206000209060070201600301548b8b81548110610f5e57610f5d61321d565b5b90600052602060002090600702016005015442604051610f8295949392919061363c565b60405180910390a460016002811115610f9e57610f9d612a94565b5b896002811115610fb157610fb0612a94565b5b036112795780600160003373ffffffffffffffffffffffffffffffffffffffff1673ffffffffffffffffffffffffffffffffffffffff16815260200190815260200160002060008d8152602001908152602001600020600082825461101691906132e7565b925050819055508484815481106110305761102f61321d565b5b9060005260206000209060070201600501548161104d919061368f565b600160003373ffffffffffffffffffffffffffffffffffffffff1673ffffffffffffffffffffffffffffffffffffffff16815260200190815260200160002060007f4441490000000000000000000000000000000000000000000000000000000000815260200190815260200160002060008282546110cc919061331b565b9250508190555080600160008787815481106110eb576110ea61321d565b5b906000526020600020906007020160010160009054906101000a900473ffffffffffffffffffffffffffffffffffffffff1673ffffffffffffffffffffffffffffffffffffffff1673ffffffffffffffffffffffffffffffffffffffff16815260200190815260200160002060008d81526020019081526020016000206000828254611177919061331b565b925050819055508484815481106111915761119061321d565b5b906000526020600020906007020160050154816111ae919061368f565b600160008787815481106111c5576111c461321d565b5b906000526020600020906007020160010160009054906101000a900473ffffffffffffffffffffffffffffffffffffffff1673ffffffffffffffffffffffffffffffffffffffff1673ffffffffffffffffffffffffffffffffffffffff16815260200190815260200160002060007f44414900000000000000000000000000000000000000000000000000000000008152602001908152602001600020600082825461127191906132e7565b925050819055505b6000600281111561128d5761128c612a94565b5b8960028111156112a05761129f612a94565b5b0361164a578484815481106112b8576112b761321d565b5b906000526020600020906007020160050154816112d5919061368f565b600160003373ffffffffffffffffffffffffffffffffffffffff1673ffffffffffffffffffffffffffffffffffffffff16815260200190815260200160002060007f44414900000000000000000000000000000000000000000000000000000000008152602001908152602001600020541015611387576040517f08c379a000000000000000000000000000000000000000000000000000000000815260040161137e90613735565b60405180910390fd5b80600160003373ffffffffffffffffffffffffffffffffffffffff1673ffffffffffffffffffffffffffffffffffffffff16815260200190815260200160002060008d815260200190815260200160002060008282546113e7919061331b565b925050819055508484815481106114015761140061321d565b5b9060005260206000209060070201600501548161141e919061368f565b600160003373ffffffffffffffffffffffffffffffffffffffff1673ffffffffffffffffffffffffffffffffffffffff16815260200190815260200160002060007f44414900000000000000000000000000000000000000000000000000000000008152602001908152602001600020600082825461149d91906132e7565b9250508190555080600160008787815481106114bc576114bb61321d565b5b906000526020600020906007020160010160009054906101000a900473ffffffffffffffffffffffffffffffffffffffff1673ffffffffffffffffffffffffffffffffffffffff1673ffffffffffffffffffffffffffffffffffffffff16815260200190815260200160002060008d8152602001908152602001600020600082825461154891906132e7565b925050819055508484815481106115625761156161321d565b5b9060005260206000209060070201600501548161157f919061368f565b600160008787815481106115965761159561321d565b5b906000526020600020906007020160010160009054906101000a900473ffffffffffffffffffffffffffffffffffffffff1673ffffffffffffffffffffffffffffffffffffffff1673ffffffffffffffffffffffffffffffffffffffff16815260200190815260200160002060007f444149000000000000000000000000000000000000000000000000000000000081526020019081526020016000206000828254611642919061331b565b925050819055505b6006600081548092919061165d90613371565b9190505550838061166d90613371565b9450505050610db0565b600091505b8280549050821080156116d6575082828154811061169d5761169c61321d565b5b9060005260206000209060070201600301548383815481106116c2576116c161321d565b5b906000526020600020906007020160040154145b156118e65760008290505b600184805490506116f291906132e7565b81101561183d5783600182611707919061331b565b815481106117185761171761321d565b5b90600052602060002090600702018482815481106117395761173861321d565b5b9060005260206000209060070201600082015481600001556001820160009054906101000a900473ffffffffffffffffffffffffffffffffffffffff168160010160006101000a81548173ffffffffffffffffffffffffffffffffffffffff021916908373ffffffffffffffffffffffffffffffffffffffff1602179055506001820160149054906101000a900460ff168160010160146101000a81548160ff021916908360028111156117f0576117ef612a94565b5b02179055506002820154816002015560038201548160030155600482015481600401556005820154816005015560068201548160060155905050808061183590613371565b9150506116e1565b508280548061184f5761184e6133b9565b5b60019003818190600052602060002090600702016000808201600090556001820160006101000a81549073ffffffffffffffffffffffffffffffffffffffff02191690556001820160146101000a81549060ff0219169055600282016000905560038201600090556004820160009055600582016000905560068201600090555050905581806118de90613371565b92505061167c565b505050505050505050565b60065481565b600460009054906101000a900473ffffffffffffffffffffffffffffffffffffffff1673ffffffffffffffffffffffffffffffffffffffff163373ffffffffffffffffffffffffffffffffffffffff1614611987576040517f08c379a000000000000000000000000000000000000000000000000000000000815260040161197e906137a1565b60405180910390fd5b60405180604001604052808381526020018273ffffffffffffffffffffffffffffffffffffffff168152506000808481526020019081526020016000206000820151816000015560208201518160010160006101000a81548173ffffffffffffffffffffffffffffffffffffffff021916908373ffffffffffffffffffffffffffffffffffffffff16021790555090505060038290806001815401808255809150506001900390600052602060002001600090919091909150555050565b60038181548110611a5557600080fd5b906000526020600020016000915090505481565b80600073ffffffffffffffffffffffffffffffffffffffff1660008083815260200190815260200160002060010160009054906101000a900473ffffffffffffffffffffffffffffffffffffffff1673ffffffffffffffffffffffffffffffffffffffff1603611b0e576040517f08c379a0000000000000000000000000000000000000000000000000000000008152600401611b0590613544565b60405180910390fd5b600160003373ffffffffffffffffffffffffffffffffffffffff1673ffffffffffffffffffffffffffffffffffffffff168152602001908152602001600020600083815260200190815260200160002054831115611ba1576040517f08c379a0000000000000000000000000000000000000000000000000000000008152600401611b989061380d565b60405180910390fd5b82600160003373ffffffffffffffffffffffffffffffffffffffff1673ffffffffffffffffffffffffffffffffffffffff16815260200190815260200160002060008481526020019081526020016000206000828254611c0191906132e7565b9250508190555060008083815260200190815260200160002060010160009054906101000a900473ffffffffffffffffffffffffffffffffffffffff1673ffffffffffffffffffffffffffffffffffffffff1663a9059cbb33856040518363ffffffff1660e01b8152600401611c7892919061382d565b6020604051808303816000875af1158015611c97573d6000803e3d6000fd5b505050506040513d601f19601f82011682018060405250810190611cbb919061388e565b50505050565b6060600060038054905067ffffffffffffffff811115611ce457611ce36138bb565b5b604051908082528060200260200182016040528015611d1d57816020015b611d0a61294d565b815260200190600190039081611d025790505b50905060005b600380549050811015611e1257604051806040016040528060008060038581548110611d5257611d5161321d565b5b9060005260206000200154815260200190815260200160002060000154815260200160008060038581548110611d8b57611d8a61321d565b5b9060005260206000200154815260200190815260200160002060010160009054906101000a900473ffffffffffffffffffffffffffffffffffffffff1673ffffffffffffffffffffffffffffffffffffffff16815250828281518110611df457611df361321d565b5b60200260200101819052508080611e0a90613371565b915050611d23565b508091505090565b80600073ffffffffffffffffffffffffffffffffffffffff1660008083815260200190815260200160002060010160009054906101000a900473ffffffffffffffffffffffffffffffffffffffff1673ffffffffffffffffffffffffffffffffffffffff1603611ebf576040517f08c379a0000000000000000000000000000000000000000000000000000000008152600401611eb690613544565b60405180910390fd5b60008083815260200190815260200160002060010160009054906101000a900473ffffffffffffffffffffffffffffffffffffffff1673ffffffffffffffffffffffffffffffffffffffff166323b872dd3330866040518463ffffffff1660e01b8152600401611f31939291906138ea565b6020604051808303816000875af1158015611f50573d6000803e3d6000fd5b505050506040513d601f19601f82011682018060405250810190611f74919061388e565b5082600160003373ffffffffffffffffffffffffffffffffffffffff1673ffffffffffffffffffffffffffffffffffffffff16815260200190815260200160002060008481526020019081526020016000206000828254611fd5919061331b565b92505081905550505050565b837f44414900000000000000000000000000000000000000000000000000000000008103612044576040517f08c379a000000000000000000000000000000000000000000000000000000000815260040161203b906135b0565b60405180910390fd5b84600073ffffffffffffffffffffffffffffffffffffffff1660008083815260200190815260200160002060010160009054906101000a900473ffffffffffffffffffffffffffffffffffffffff1673ffffffffffffffffffffffffffffffffffffffff16036120e9576040517f08c379a00000000000000000000000000000000000000000000000000000000081526004016120e090613544565b60405180910390fd5b826002808111156120fd576120fc612a94565b5b8160028111156121105761210f612a94565b5b03612150576040517f08c379a0000000000000000000000000000000000000000000000000000000008152600401612147906131fd565b60405180910390fd5b6001600281111561216457612163612a94565b5b84600281111561217757612176612a94565b5b036122145785600160003373ffffffffffffffffffffffffffffffffffffffff1673ffffffffffffffffffffffffffffffffffffffff168152602001908152602001600020600089815260200190815260200160002054101561220f576040517f08c379a00000000000000000000000000000000000000000000000000000000081526004016122069061361c565b60405180910390fd5b6122d3565b8486612220919061368f565b600160003373ffffffffffffffffffffffffffffffffffffffff1673ffffffffffffffffffffffffffffffffffffffff16815260200190815260200160002060007f444149000000000000000000000000000000000000000000000000000000000081526020019081526020016000205410156122d2576040517f08c379a00000000000000000000000000000000000000000000000000000000081526004016122c99061396d565b60405180910390fd5b5b60006002600089815260200190815260200160002060008660028111156122fd576122fc612a94565b5b815260200190815260200160002090508060405180610100016040528060055481526020013373ffffffffffffffffffffffffffffffffffffffff16815260200187600281111561235157612350612a94565b5b81526020018a8152602001898152602001600081526020018881526020014281525090806001815401808255809150506001900390600052602060002090600702016000909190919091506000820151816000015560208201518160010160006101000a81548173ffffffffffffffffffffffffffffffffffffffff021916908373ffffffffffffffffffffffffffffffffffffffff16021790555060408201518160010160146101000a81548160ff0219169083600281111561241857612417612a94565b5b0217905550606082015181600201556080820151816003015560a0820151816004015560c0820151816005015560e082015181600601555050600080828054905011612465576000612477565b6001828054905061247691906132e7565b5b90505b60008111156128c0576000600281111561249757612496612a94565b5b8660028111156124aa576124a9612a94565b5b14801561250a57508181815481106124c5576124c461321d565b5b906000526020600020906007020160050154826001836124e591906132e7565b815481106124f6576124f561321d565b5b906000526020600020906007020160050154115b6128c0576001600281111561252257612521612a94565b5b86600281111561253557612534612a94565b5b14801561259557508181815481106125505761254f61321d565b5b9060005260206000209060070201600501548260018361257091906132e7565b815481106125815761258061321d565b5b906000526020600020906007020160050154105b6128c0576000826001836125a991906132e7565b815481106125ba576125b961321d565b5b906000526020600020906007020160405180610100016040529081600082015481526020016001820160009054906101000a900473ffffffffffffffffffffffffffffffffffffffff1673ffffffffffffffffffffffffffffffffffffffff1673ffffffffffffffffffffffffffffffffffffffff1681526020016001820160149054906101000a900460ff16600281111561265957612658612a94565b5b600281111561266b5761266a612a94565b5b81526020016002820154815260200160038201548152602001600482015481526020016005820154815260200160068201548152505090508282815481106126b6576126b561321d565b5b9060005260206000209060070201836001846126d291906132e7565b815481106126e3576126e261321d565b5b9060005260206000209060070201600082015481600001556001820160009054906101000a900473ffffffffffffffffffffffffffffffffffffffff168160010160006101000a81548173ffffffffffffffffffffffffffffffffffffffff021916908373ffffffffffffffffffffffffffffffffffffffff1602179055506001820160149054906101000a900460ff168160010160146101000a81548160ff0219169083600281111561279a57612799612a94565b5b02179055506002820154816002015560038201548160030155600482015481600401556005820154816005015560068201548160060155905050808383815481106127e8576127e761321d565b5b90600052602060002090600702016000820151816000015560208201518160010160006101000a81548173ffffffffffffffffffffffffffffffffffffffff021916908373ffffffffffffffffffffffffffffffffffffffff16021790555060408201518160010160146101000a81548160ff0219169083600281111561287257612871612a94565b5b0217905550606082015181600201556080820151816003015560a0820151816004015560c0820151816005015560e0820151816006015590505081806128b79061398d565b9250505061247a565b600560008154809291906128d390613371565b9190505550505050505050505050565b60006020528060005260406000206000915090508060000154908060010160009054906101000a900473ffffffffffffffffffffffffffffffffffffffff16905082565b600460009054906101000a900473ffffffffffffffffffffffffffffffffffffffff1681565b604051806040016040528060008019168152602001600073ffffffffffffffffffffffffffffffffffffffff1681525090565b600080fd5b6000819050919050565b61299881612985565b81146129a357600080fd5b50565b6000813590506129b58161298f565b92915050565b6000819050919050565b6129ce816129bb565b81146129d957600080fd5b50565b6000813590506129eb816129c5565b92915050565b600080600060608486031215612a0a57612a09612980565b5b6000612a18868287016129a6565b9350506020612a29868287016129dc565b9250506040612a3a868287016129dc565b9150509250925092565b612a4d816129bb565b82525050565b600073ffffffffffffffffffffffffffffffffffffffff82169050919050565b6000612a7e82612a53565b9050919050565b612a8e81612a73565b82525050565b7f4e487b7100000000000000000000000000000000000000000000000000000000600052602160045260246000fd5b60038110612ad457612ad3612a94565b5b50565b6000819050612ae582612ac3565b919050565b6000612af582612ad7565b9050919050565b612b0581612aea565b82525050565b612b1481612985565b82525050565b600061010082019050612b30600083018b612a44565b612b3d602083018a612a85565b612b4a6040830189612afc565b612b576060830188612b0b565b612b646080830187612a44565b612b7160a0830186612a44565b612b7e60c0830185612a44565b612b8b60e0830184612a44565b9998505050505050505050565b6000602082019050612bad6000830184612a44565b92915050565b60038110612bc057600080fd5b50565b600081359050612bd281612bb3565b92915050565b60008060408385031215612bef57612bee612980565b5b6000612bfd858286016129a6565b9250506020612c0e85828601612bc3565b9150509250929050565b600081519050919050565b600082825260208201905092915050565b6000819050602082019050919050565b612c4d816129bb565b82525050565b612c5c81612a73565b82525050565b612c6b81612aea565b82525050565b612c7a81612985565b82525050565b61010082016000820151612c976000850182612c44565b506020820151612caa6020850182612c53565b506040820151612cbd6040850182612c62565b506060820151612cd06060850182612c71565b506080820151612ce36080850182612c44565b5060a0820151612cf660a0850182612c44565b5060c0820151612d0960c0850182612c44565b5060e0820151612d1c60e0850182612c44565b50505050565b6000612d2e8383612c80565b6101008301905092915050565b6000602082019050919050565b6000612d5382612c18565b612d5d8185612c23565b9350612d6883612c34565b8060005b83811015612d99578151612d808882612d22565b9750612d8b83612d3b565b925050600181019050612d6c565b5085935050505092915050565b60006020820190508181036000830152612dc08184612d48565b905092915050565b600080600060608486031215612de157612de0612980565b5b6000612def868287016129a6565b9350506020612e0086828701612bc3565b9250506040612e11868287016129dc565b9150509250925092565b612e2481612a73565b8114612e2f57600080fd5b50565b600081359050612e4181612e1b565b92915050565b60008060408385031215612e5e57612e5d612980565b5b6000612e6c85828601612e32565b9250506020612e7d858286016129a6565b9150509250929050565b600080600060608486031215612ea057612e9f612980565b5b6000612eae868287016129a6565b9350506020612ebf868287016129dc565b9250506040612ed086828701612bc3565b9150509250925092565b60008060408385031215612ef157612ef0612980565b5b6000612eff858286016129a6565b9250506020612f1085828601612e32565b9150509250929050565b600060208284031215612f3057612f2f612980565b5b6000612f3e848285016129dc565b91505092915050565b6000602082019050612f5c6000830184612b0b565b92915050565b60008060408385031215612f7957612f78612980565b5b6000612f87858286016129dc565b9250506020612f98858286016129a6565b9150509250929050565b600081519050919050565b600082825260208201905092915050565b6000819050602082019050919050565b604082016000820151612fe46000850182612c71565b506020820151612ff76020850182612c53565b50505050565b60006130098383612fce565b60408301905092915050565b6000602082019050919050565b600061302d82612fa2565b6130378185612fad565b935061304283612fbe565b8060005b8381101561307357815161305a8882612ffd565b975061306583613015565b925050600181019050613046565b5085935050505092915050565b6000602082019050818103600083015261309a8184613022565b905092915050565b600080600080608085870312156130bc576130bb612980565b5b60006130ca878288016129a6565b94505060206130db878288016129dc565b93505060406130ec878288016129dc565b92505060606130fd87828801612bc3565b91505092959194509250565b60006020828403121561311f5761311e612980565b5b600061312d848285016129a6565b91505092915050565b600060408201905061314b6000830185612b0b565b6131586020830184612a85565b9392505050565b60006020820190506131746000830184612a85565b92915050565b600082825260208201905092915050565b7f696e76616c6964207472616e73616374696f6e3a2063616e63656c206368656360008201527f6b65720000000000000000000000000000000000000000000000000000000000602082015250565b60006131e760238361317a565b91506131f28261318b565b604082019050919050565b60006020820190508181036000830152613216816131da565b9050919050565b7f4e487b7100000000000000000000000000000000000000000000000000000000600052603260045260246000fd5b7f6e6f7420617574686f72697a656420746f2063616e63656c206f726465720000600082015250565b6000613282601e8361317a565b915061328d8261324c565b602082019050919050565b600060208201905081810360008301526132b181613275565b9050919050565b7f4e487b7100000000000000000000000000000000000000000000000000000000600052601160045260246000fd5b60006132f2826129bb565b91506132fd836129bb565b9250828210156133105761330f6132b8565b5b828203905092915050565b6000613326826129bb565b9150613331836129bb565b9250827fffffffffffffffffffffffffffffffffffffffffffffffffffffffffffffffff03821115613366576133656132b8565b5b828201905092915050565b600061337c826129bb565b91507fffffffffffffffffffffffffffffffffffffffffffffffffffffffffffffffff82036133ae576133ad6132b8565b5b600182019050919050565b7f4e487b7100000000000000000000000000000000000000000000000000000000600052603160045260246000fd5b7f6f7264657220776173207375636365737366756c6c792063616e63656c6c6564600082015250565b600061341e60208361317a565b9150613429826133e8565b602082019050919050565b60006060820190506134496000830185612a44565b6134566020830184612b0b565b818103604083015261346781613411565b90509392505050565b7f6f7264657220646f6573206e6f74206578697374000000000000000000000000600082015250565b60006134a660148361317a565b91506134b182613470565b602082019050919050565b60006060820190506134d16000830185612a44565b6134de6020830184612b0b565b81810360408301526134ef81613499565b90509392505050565b7f746f6b656e20646f6573206e6f74206578697374000000000000000000000000600082015250565b600061352e60148361317a565b9150613539826134f8565b602082019050919050565b6000602082019050818103600083015261355d81613521565b9050919050565b7f43616e6e6f742074726164652044414900000000000000000000000000000000600082015250565b600061359a60108361317a565b91506135a582613564565b602082019050919050565b600060208201905081810360008301526135c98161358d565b9050919050565b7f746f6b656e2062616c616e636520746f6f206c6f770000000000000000000000600082015250565b600061360660158361317a565b9150613611826135d0565b602082019050919050565b60006020820190508181036000830152613635816135f9565b9050919050565b600060a0820190506136516000830188612a44565b61365e6020830187612a44565b61366b6040830186612a44565b6136786060830185612a44565b6136856080830184612a44565b9695505050505050565b600061369a826129bb565b91506136a5836129bb565b9250817fffffffffffffffffffffffffffffffffffffffffffffffffffffffffffffffff04831182151516156136de576136dd6132b8565b5b828202905092915050565b7f6461692062616c616e636520746f6f206c6f7700000000000000000000000000600082015250565b600061371f60138361317a565b915061372a826136e9565b602082019050919050565b6000602082019050818103600083015261374e81613712565b9050919050565b7f6f6e6c792061646d696e00000000000000000000000000000000000000000000600082015250565b600061378b600a8361317a565b915061379682613755565b602082019050919050565b600060208201905081810360008301526137ba8161377e565b9050919050565b7f62616c616e636520746f6f206c6f770000000000000000000000000000000000600082015250565b60006137f7600f8361317a565b9150613802826137c1565b602082019050919050565b60006020820190508181036000830152613826816137ea565b9050919050565b60006040820190506138426000830185612a85565b61384f6020830184612a44565b9392505050565b60008115159050919050565b61386b81613856565b811461387657600080fd5b50565b60008151905061388881613862565b92915050565b6000602082840312156138a4576138a3612980565b5b60006138b284828501613879565b91505092915050565b7f4e487b7100000000000000000000000000000000000000000000000000000000600052604160045260246000fd5b60006060820190506138ff6000830186612a85565b61390c6020830185612a85565b6139196040830184612a44565b949350505050565b7f4441492062616c616e636520746f6f206c6f7700000000000000000000000000600082015250565b600061395760138361317a565b915061396282613921565b602082019050919050565b600060208201905081810360008301526139868161394a565b9050919050565b6000613998826129bb565b9150600082036139ab576139aa6132b8565b5b60018203905091905056fea2646970667358221220243025c2edd0744b3c26dae001aa6be0c5efd08ddd329a1d648699ec499a58a564736f6c634300080d0033",
  "immutableReferences": {},
  "source": "// SPDX-License-Identifier: MIT\r\npragma solidity ^0.8.13;\r\nimport \"@openzeppelin/contracts/token/ERC20/IERC20.sol\";\r\n\r\ncontract Dex{\r\n\r\n    enum Side {\r\n        BUY,\r\n        SELL,\r\n        CANCEL\r\n    }\r\n\r\n    struct Token{\r\n        bytes32 ticker;\r\n        address tokenAddress;\r\n    }\r\n\r\n    struct Order {\r\n        uint id;\r\n        address trader;\r\n        Side side;\r\n        bytes32 ticker;\r\n        uint amount;\r\n        uint filled;\r\n        uint price;\r\n        uint date;\r\n    }\r\n\r\n    mapping(bytes32 => Token) public token;\r\n\r\n    mapping(address => mapping(bytes32 => uint)) public tradersBalances;\r\n\r\n    mapping(bytes32 => mapping(uint => Order[])) public orderBook;\r\n\r\n    bytes32[] public tokenList;\r\n\r\n    address public admin;\r\n\r\n    uint public nextOrderId; \r\n\r\n    uint public nextTradeId;\r\n\r\n    bytes32 constant DAI = bytes32('DAI');\r\n\r\n    event NewTrade(\r\n        uint tradeId,\r\n        uint orderId,\r\n        bytes32 indexed ticker,\r\n        address indexed trader1,\r\n        address indexed trader2,\r\n        uint amount,\r\n        uint price,\r\n        uint date\r\n    );\r\n\r\n    event CancelOrder(\r\n        uint orderId,\r\n        bytes32 ticker,\r\n        string message\r\n    );\r\n\r\n    constructor(){\r\n        admin = msg.sender;\r\n    }\r\n\r\n    function addToken (bytes32 ticker, address tokenAddress) external onlyAdmin{\r\n        token[ticker] = Token(ticker, tokenAddress);\r\n        tokenList.push(ticker);\r\n    }\r\n\r\n    function deposit(uint amount, bytes32 ticker) external tokenExist(ticker){\r\n        IERC20(token[ticker].tokenAddress).transferFrom(\r\n            msg.sender,\r\n            address(this),\r\n            amount\r\n        );\r\n\r\n        tradersBalances[msg.sender][ticker] += amount;\r\n    }\r\n\r\n\r\n    function withdraw (uint amount, bytes32 ticker) external tokenExist(ticker){\r\n        require(amount <= tradersBalances[msg.sender][ticker], \"balance too low\");\r\n\r\n        tradersBalances[msg.sender][ticker] -= amount;\r\n\r\n        IERC20(token[ticker].tokenAddress).transfer(\r\n            msg.sender,\r\n            amount\r\n        );\r\n    }\r\n\r\n    function createLimitOrder(bytes32 ticker, uint amount, uint price, Side side) external tokenIsNotDai(ticker) tokenExist(ticker) cancelChecker(side){\r\n\r\n        if(side == Side.SELL){\r\n\r\n            require(tradersBalances[msg.sender][ticker] >= amount, \"token balance too low\");\r\n\r\n        }else{\r\n\r\n            require(tradersBalances[msg.sender][DAI] >= amount * price, \"DAI balance too low\");\r\n\r\n        }\r\n\r\n        Order[] storage orders = orderBook[ticker][uint(side)];\r\n\r\n        orders.push(Order( nextOrderId, msg.sender, side, ticker, amount, 0, price, block.timestamp));\r\n\r\n        uint i = orders.length > 0 ? orders.length - 1 : 0;\r\n\r\n        while(i > 0){\r\n            if(side == Side.BUY && orders[i-1].price > orders[i].price){\r\n                break;\r\n            }\r\n            if(side == Side.SELL && orders[i-1].price < orders[i].price){\r\n                break;\r\n            }\r\n\r\n            Order memory order = orders[i-1];\r\n            orders[i-1] = orders[i];\r\n            orders[i] = order;\r\n            i--;\r\n        }\r\n        nextOrderId++;\r\n    }\r\n\r\n    function createMarketOrder(bytes32 ticker, uint amount, Side side) external tokenExist(ticker) tokenIsNotDai(ticker) cancelChecker(side){\r\n        if(side == Side.SELL){\r\n\r\n            require(tradersBalances[msg.sender][ticker] >= amount, \"token balance too low\");\r\n\r\n        }\r\n\r\n        Order[] storage orders = orderBook[ticker][uint(side == Side.BUY ? Side.SELL : Side.BUY)];\r\n\r\n        uint i;\r\n\r\n        uint remaining = amount;\r\n\r\n        while(i < orders.length && remaining > 0){\r\n\r\n            uint available = orders[i].amount - orders[i].filled;\r\n\r\n            uint matched = remaining > available ? available : remaining;\r\n\r\n            remaining -= matched;\r\n\r\n            orders[i].filled = matched;\r\n\r\n            emit NewTrade( nextTradeId, orders[i].id, ticker, orders[i].trader, msg.sender, orders[i].amount, orders[i].price, block.timestamp);\r\n\r\n            if(side == Side.SELL){\r\n\r\n            tradersBalances[msg.sender][ticker] -= matched;\r\n\r\n            tradersBalances[msg.sender][DAI] += matched * orders[i].price;\r\n\r\n            tradersBalances[orders[i].trader][ticker] += matched;\r\n\r\n            tradersBalances[orders[i].trader][DAI] -= matched * orders[i].price;\r\n\r\n            }\r\n\r\n            if(side == Side.BUY){\r\n\r\n            require(tradersBalances[msg.sender][DAI] >= matched * orders[i].price, \"dai balance too low\" );\r\n\r\n            tradersBalances[msg.sender][ticker] += matched;\r\n\r\n            tradersBalances[msg.sender][DAI] -= matched * orders[i].price;\r\n\r\n            tradersBalances[orders[i].trader][ticker] -= matched;\r\n\r\n            tradersBalances[orders[i].trader][DAI] += matched * orders[i].price;\r\n\r\n            }\r\n            nextTradeId++;\r\n            i++;\r\n        }\r\n\r\n        i = 0;\r\n\r\n        while(i < orders.length && orders[i].filled == orders[i].amount){\r\n            for(uint j = i; j < orders.length - 1; j++){\r\n                orders[j] = orders[j + 1];\r\n            }\r\n\r\n            orders.pop();\r\n            i++;\r\n        }\r\n        \r\n    }\r\n\r\n    function cancelOrder(bytes32 ticker, Side side, uint id) external cancelChecker(side){\r\n\r\n        Order[] storage orders = orderBook[ticker][uint(side)];\r\n        Order[] storage CanceledOrders = orderBook[ticker][uint(Side.CANCEL)];\r\n\r\n        for(uint i = 0; i < orders.length; i++){\r\n            if(orders[i].id == id){\r\n                require(orders[i].trader == msg.sender, \"not authorized to cancel order\");\r\n\r\n                orders[i].side = Side.CANCEL;\r\n\r\n                CanceledOrders.push(orders[i]);\r\n\r\n                for(uint j = i; j < orders.length - 1; j++){\r\n                    orders[j] = orders[j + 1];      \r\n                 }\r\n\r\n                orders.pop();\r\n\r\n                emit CancelOrder( id, ticker, \"order was successfully cancelled\");\r\n            break;\r\n            }\r\n        }\r\n\r\n        emit CancelOrder( id, ticker, \"order does not exist\");\r\n    }\r\n\r\n    function getOrders( bytes32 ticker, Side side) external view returns(Order[] memory) {\r\n        return orderBook[ticker][uint(side)];\r\n    }\r\n\r\n    function getTokens() external view returns(Token[] memory) {\r\n      Token[] memory _tokens = new Token[](tokenList.length);\r\n      for (uint i = 0; i < tokenList.length; i++) {\r\n        _tokens[i] = Token(\r\n          token[tokenList[i]].ticker,\r\n          token[tokenList[i]].tokenAddress\r\n        );\r\n      }\r\n      return _tokens;\r\n    }\r\n\r\n    modifier tokenIsNotDai(bytes32 ticker){\r\n        require(ticker != DAI, \"Cannot trade DAI\");\r\n        _;\r\n    }\r\n\r\n    modifier onlyAdmin{\r\n        require(msg.sender == admin, \"only admin\");\r\n        _;\r\n    }\r\n\r\n    modifier tokenExist(bytes32 ticker){\r\n        require(token[ticker].tokenAddress != address(0), \"token does not exist\");\r\n        _;\r\n    }\r\n\r\n    modifier cancelChecker(Side side){\r\n        require(side != Side.CANCEL, \"invalid transaction: cancel checker\");\r\n        _;\r\n    }\r\n}",
  "sourcePath": "C:\\Users\\Dami\\Desktop\\DEX\\contracts\\Dex.sol",
  "compiler": {
    "name": "solc",
    "version": "0.8.13+commit.abaa5c0e.Emscripten.clang"
  },
  "schemaVersion": "3.4.4",
  "updatedAt": "2022-06-01T11:36:47.702Z",
  "networkType": "ethereum",
  "devdoc": {
    "kind": "dev",
    "methods": {},
    "version": 1
  },
  "userdoc": {
    "kind": "user",
    "methods": {},
    "version": 1
  }
}